{
  "_format": "hh-sol-artifact-1",
  "contractName": "Jugadores",
  "sourceName": "contracts/Jugador.sol",
  "abi": [
    {
      "anonymous": false,
      "inputs": [
        {
          "indexed": true,
          "internalType": "address",
          "name": "previousOwner",
          "type": "address"
        },
        {
          "indexed": true,
          "internalType": "address",
          "name": "newOwner",
          "type": "address"
        }
      ],
      "name": "OwnershipTransferred",
      "type": "event"
    },
    {
      "inputs": [
        {
          "internalType": "string",
          "name": "jugadorName",
          "type": "string"
        },
        {
          "internalType": "uint256",
          "name": "edad",
          "type": "uint256"
        }
      ],
      "name": "addJugador",
      "outputs": [
        {
          "internalType": "uint256",
          "name": "",
          "type": "uint256"
        }
      ],
      "stateMutability": "nonpayable",
      "type": "function"
    },
    {
      "inputs": [
        {
          "internalType": "uint256",
          "name": "jugadorId",
          "type": "uint256"
        },
        {
          "internalType": "uint256",
          "name": "amount",
          "type": "uint256"
        }
      ],
      "name": "buyBoleto",
      "outputs": [],
      "stateMutability": "nonpayable",
      "type": "function"
    },
    {
      "inputs": [
        {
          "internalType": "uint256",
          "name": "jugadorId",
          "type": "uint256"
        }
      ],
      "name": "getJugadorById",
      "outputs": [
        {
          "components": [
            {
              "internalType": "uint256",
              "name": "jugadorId",
              "type": "uint256"
            },
            {
              "internalType": "string",
              "name": "jugadorName",
              "type": "string"
            },
            {
              "internalType": "uint256",
              "name": "edad",
              "type": "uint256"
            },
            {
              "internalType": "uint256",
              "name": "amountBoletos",
              "type": "uint256"
            }
          ],
          "internalType": "struct Jugadores.Jugador",
          "name": "",
          "type": "tuple"
        }
      ],
      "stateMutability": "view",
      "type": "function"
    },
    {
      "inputs": [],
      "name": "getJugadores",
      "outputs": [
        {
          "components": [
            {
              "internalType": "uint256",
              "name": "jugadorId",
              "type": "uint256"
            },
            {
              "internalType": "string",
              "name": "jugadorName",
              "type": "string"
            },
            {
              "internalType": "uint256",
              "name": "edad",
              "type": "uint256"
            },
            {
              "internalType": "uint256",
              "name": "amountBoletos",
              "type": "uint256"
            }
          ],
          "internalType": "struct Jugadores.Jugador[]",
          "name": "",
          "type": "tuple[]"
        }
      ],
      "stateMutability": "view",
      "type": "function"
    },
    {
      "inputs": [
        {
          "internalType": "uint256",
          "name": "",
          "type": "uint256"
        }
      ],
      "name": "jugadores",
      "outputs": [
        {
          "internalType": "uint256",
          "name": "jugadorId",
          "type": "uint256"
        },
        {
          "internalType": "string",
          "name": "jugadorName",
          "type": "string"
        },
        {
          "internalType": "uint256",
          "name": "edad",
          "type": "uint256"
        },
        {
          "internalType": "uint256",
          "name": "amountBoletos",
          "type": "uint256"
        }
      ],
      "stateMutability": "view",
      "type": "function"
    },
    {
      "inputs": [],
      "name": "owner",
      "outputs": [
        {
          "internalType": "address",
          "name": "",
          "type": "address"
        }
      ],
      "stateMutability": "view",
      "type": "function"
    },
    {
      "inputs": [],
      "name": "renounceOwnership",
      "outputs": [],
      "stateMutability": "nonpayable",
      "type": "function"
    },
    {
      "inputs": [
        {
          "internalType": "address",
          "name": "newOwner",
          "type": "address"
        }
      ],
      "name": "transferOwnership",
      "outputs": [],
      "stateMutability": "nonpayable",
      "type": "function"
    }
  ],
  "bytecode": "0x608060405234801561001057600080fd5b5060006100216100c460201b60201c565b9050806000806101000a81548173ffffffffffffffffffffffffffffffffffffffff021916908373ffffffffffffffffffffffffffffffffffffffff1602179055508073ffffffffffffffffffffffffffffffffffffffff16600073ffffffffffffffffffffffffffffffffffffffff167f8be0079c531659141344cd1fd0a4f28419497f9722a3daafe3b4186f6b6457e060405160405180910390a3506100cc565b600033905090565b61149b806100db6000396000f3fe608060405234801561001057600080fd5b50600436106100885760003560e01c80638da5cb5b1161005b5780638da5cb5b14610116578063f2fde38b14610134578063f7d9d25914610150578063ff23370f1461016e57610088565b8063494807431461008d5780634aead46c146100bd57806361ca0b35146100f0578063715018a61461010c575b600080fd5b6100a760048036038101906100a29190610a19565b61019e565b6040516100b49190610b48565b60405180910390f35b6100d760048036038101906100d29190610a19565b61027b565b6040516100e79493929190610bc3565b60405180910390f35b61010a60048036038101906101059190610c0f565b610333565b005b6101146103e0565b005b61011e61051a565b60405161012b9190610c90565b60405180910390f35b61014e60048036038101906101499190610cd7565b610543565b005b6101586106eb565b6040516101659190610e29565b60405180910390f35b61018860048036038101906101839190610f80565b61086f565b6040516101959190610fdc565b60405180910390f35b6101a66109a7565b60026000838152602001908152602001600020604051806080016040529081600082015481526020016001820180546101de90611026565b80601f016020809104026020016040519081016040528092919081815260200182805461020a90611026565b80156102575780601f1061022c57610100808354040283529160200191610257565b820191906000526020600020905b81548152906001019060200180831161023a57829003601f168201915b50505050508152602001600282015481526020016003820154815250509050919050565b60026020528060005260406000206000915090508060000154908060010180546102a490611026565b80601f01602080910402602001604051908101604052809291908181526020018280546102d090611026565b801561031d5780601f106102f25761010080835404028352916020019161031d565b820191906000526020600020905b81548152906001019060200180831161030057829003601f168201915b5050505050908060020154908060030154905084565b61033b61097b565b73ffffffffffffffffffffffffffffffffffffffff1661035961051a565b73ffffffffffffffffffffffffffffffffffffffff16146103af576040517f08c379a00000000000000000000000000000000000000000000000000000000081526004016103a6906110a3565b60405180910390fd5b806002600084815260200190815260200160002060030160008282546103d591906110f2565b925050819055505050565b6103e861097b565b73ffffffffffffffffffffffffffffffffffffffff1661040661051a565b73ffffffffffffffffffffffffffffffffffffffff161461045c576040517f08c379a0000000000000000000000000000000000000000000000000000000008152600401610453906110a3565b60405180910390fd5b600073ffffffffffffffffffffffffffffffffffffffff1660008054906101000a900473ffffffffffffffffffffffffffffffffffffffff1673ffffffffffffffffffffffffffffffffffffffff167f8be0079c531659141344cd1fd0a4f28419497f9722a3daafe3b4186f6b6457e060405160405180910390a360008060006101000a81548173ffffffffffffffffffffffffffffffffffffffff021916908373ffffffffffffffffffffffffffffffffffffffff160217905550565b60008060009054906101000a900473ffffffffffffffffffffffffffffffffffffffff16905090565b61054b61097b565b73ffffffffffffffffffffffffffffffffffffffff1661056961051a565b73ffffffffffffffffffffffffffffffffffffffff16146105bf576040517f08c379a00000000000000000000000000000000000000000000000000000000081526004016105b6906110a3565b60405180910390fd5b600073ffffffffffffffffffffffffffffffffffffffff168173ffffffffffffffffffffffffffffffffffffffff160361062e576040517f08c379a000000000000000000000000000000000000000000000000000000000815260040161062590611198565b60405180910390fd5b8073ffffffffffffffffffffffffffffffffffffffff1660008054906101000a900473ffffffffffffffffffffffffffffffffffffffff1673ffffffffffffffffffffffffffffffffffffffff167f8be0079c531659141344cd1fd0a4f28419497f9722a3daafe3b4186f6b6457e060405160405180910390a3806000806101000a81548173ffffffffffffffffffffffffffffffffffffffff021916908373ffffffffffffffffffffffffffffffffffffffff16021790555050565b606060006106f96001610983565b67ffffffffffffffff81111561071257610711610e55565b5b60405190808252806020026020018201604052801561074b57816020015b6107386109a7565b8152602001906001900390816107305790505b50905060005b61075b6001610983565b811015610867576002600060018361077391906110f2565b8152602001908152602001600020604051806080016040529081600082015481526020016001820180546107a690611026565b80601f01602080910402602001604051908101604052809291908181526020018280546107d290611026565b801561081f5780601f106107f45761010080835404028352916020019161081f565b820191906000526020600020905b81548152906001019060200180831161080257829003601f168201915b505050505081526020016002820154815260200160038201548152505082828151811061084f5761084e6111b8565b5b60200260200101819052508080600101915050610751565b508091505090565b600061087961097b565b73ffffffffffffffffffffffffffffffffffffffff1661089761051a565b73ffffffffffffffffffffffffffffffffffffffff16146108ed576040517f08c379a00000000000000000000000000000000000000000000000000000000081526004016108e4906110a3565b60405180910390fd5b6108f76001610991565b60006109036001610983565b905060405180608001604052808281526020018581526020018481526020016000815250600260008381526020019081526020016000206000820151816000015560208201518160010190816109599190611393565b5060408201518160020155606082015181600301559050508091505092915050565b600033905090565b600081600001549050919050565b6001816000016000828254019250508190555050565b6040518060800160405280600081526020016060815260200160008152602001600081525090565b6000604051905090565b600080fd5b600080fd5b6000819050919050565b6109f6816109e3565b8114610a0157600080fd5b50565b600081359050610a13816109ed565b92915050565b600060208284031215610a2f57610a2e6109d9565b5b6000610a3d84828501610a04565b91505092915050565b610a4f816109e3565b82525050565b600081519050919050565b600082825260208201905092915050565b60005b83811015610a8f578082015181840152602081019050610a74565b60008484015250505050565b6000601f19601f8301169050919050565b6000610ab782610a55565b610ac18185610a60565b9350610ad1818560208601610a71565b610ada81610a9b565b840191505092915050565b6000608083016000830151610afd6000860182610a46565b5060208301518482036020860152610b158282610aac565b9150506040830151610b2a6040860182610a46565b506060830151610b3d6060860182610a46565b508091505092915050565b60006020820190508181036000830152610b628184610ae5565b905092915050565b610b73816109e3565b82525050565b600082825260208201905092915050565b6000610b9582610a55565b610b9f8185610b79565b9350610baf818560208601610a71565b610bb881610a9b565b840191505092915050565b6000608082019050610bd86000830187610b6a565b8181036020830152610bea8186610b8a565b9050610bf96040830185610b6a565b610c066060830184610b6a565b95945050505050565b60008060408385031215610c2657610c256109d9565b5b6000610c3485828601610a04565b9250506020610c4585828601610a04565b9150509250929050565b600073ffffffffffffffffffffffffffffffffffffffff82169050919050565b6000610c7a82610c4f565b9050919050565b610c8a81610c6f565b82525050565b6000602082019050610ca56000830184610c81565b92915050565b610cb481610c6f565b8114610cbf57600080fd5b50565b600081359050610cd181610cab565b92915050565b600060208284031215610ced57610cec6109d9565b5b6000610cfb84828501610cc2565b91505092915050565b600081519050919050565b600082825260208201905092915050565b6000819050602082019050919050565b6000608083016000830151610d486000860182610a46565b5060208301518482036020860152610d608282610aac565b9150506040830151610d756040860182610a46565b506060830151610d886060860182610a46565b508091505092915050565b6000610d9f8383610d30565b905092915050565b6000602082019050919050565b6000610dbf82610d04565b610dc98185610d0f565b935083602082028501610ddb85610d20565b8060005b85811015610e175784840389528151610df88582610d93565b9450610e0383610da7565b925060208a01995050600181019050610ddf565b50829750879550505050505092915050565b60006020820190508181036000830152610e438184610db4565b905092915050565b600080fd5b600080fd5b7f4e487b7100000000000000000000000000000000000000000000000000000000600052604160045260246000fd5b610e8d82610a9b565b810181811067ffffffffffffffff82111715610eac57610eab610e55565b5b80604052505050565b6000610ebf6109cf565b9050610ecb8282610e84565b919050565b600067ffffffffffffffff821115610eeb57610eea610e55565b5b610ef482610a9b565b9050602081019050919050565b82818337600083830152505050565b6000610f23610f1e84610ed0565b610eb5565b905082815260208101848484011115610f3f57610f3e610e50565b5b610f4a848285610f01565b509392505050565b600082601f830112610f6757610f66610e4b565b5b8135610f77848260208601610f10565b91505092915050565b60008060408385031215610f9757610f966109d9565b5b600083013567ffffffffffffffff811115610fb557610fb46109de565b5b610fc185828601610f52565b9250506020610fd285828601610a04565b9150509250929050565b6000602082019050610ff16000830184610b6a565b92915050565b7f4e487b7100000000000000000000000000000000000000000000000000000000600052602260045260246000fd5b6000600282049050600182168061103e57607f821691505b60208210810361105157611050610ff7565b5b50919050565b7f4f776e61626c653a2063616c6c6572206973206e6f7420746865206f776e6572600082015250565b600061108d602083610b79565b915061109882611057565b602082019050919050565b600060208201905081810360008301526110bc81611080565b9050919050565b7f4e487b7100000000000000000000000000000000000000000000000000000000600052601160045260246000fd5b60006110fd826109e3565b9150611108836109e3565b92508282019050808211156111205761111f6110c3565b5b92915050565b7f4f776e61626c653a206e6577206f776e657220697320746865207a65726f206160008201527f6464726573730000000000000000000000000000000000000000000000000000602082015250565b6000611182602683610b79565b915061118d82611126565b604082019050919050565b600060208201905081810360008301526111b181611175565b9050919050565b7f4e487b7100000000000000000000000000000000000000000000000000000000600052603260045260246000fd5b60008190508160005260206000209050919050565b60006020601f8301049050919050565b600082821b905092915050565b6000600883026112497fffffffffffffffffffffffffffffffffffffffffffffffffffffffffffffffff8261120c565b611253868361120c565b95508019841693508086168417925050509392505050565b6000819050919050565b600061129061128b611286846109e3565b61126b565b6109e3565b9050919050565b6000819050919050565b6112aa83611275565b6112be6112b682611297565b848454611219565b825550505050565b600090565b6112d36112c6565b6112de8184846112a1565b505050565b5b81811015611302576112f76000826112cb565b6001810190506112e4565b5050565b601f82111561134757611318816111e7565b611321846111fc565b81016020851015611330578190505b61134461133c856111fc565b8301826112e3565b50505b505050565b600082821c905092915050565b600061136a6000198460080261134c565b1980831691505092915050565b60006113838383611359565b9150826002028217905092915050565b61139c82610a55565b67ffffffffffffffff8111156113b5576113b4610e55565b5b6113bf8254611026565b6113ca828285611306565b600060209050601f8311600181146113fd57600084156113eb578287015190505b6113f58582611377565b86555061145d565b601f19841661140b866111e7565b60005b828110156114335784890151825560018201915060208501945060208101905061140e565b86831015611450578489015161144c601f891682611359565b8355505b6001600288020188555050505b50505050505056fea264697066735822122015dca832874930eff60b64cc4c71c9789e8820488cc6f54762b806b4b4b348d064736f6c63430008180033",
  "linkReferences": {},
  "deployedLinkReferences": {}
}