{
  "_format": "hh-sol-artifact-1",
  "contractName": "Loterias",
  "sourceName": "contracts/Loteria.sol",
  "abi": [
    {
      "anonymous": false,
      "inputs": [
        {
          "indexed": true,
          "internalType": "address",
          "name": "previousOwner",
          "type": "address"
        },
        {
          "indexed": true,
          "internalType": "address",
          "name": "newOwner",
          "type": "address"
        }
      ],
      "name": "OwnershipTransferred",
      "type": "event"
    },
    {
      "inputs": [
        {
          "internalType": "string",
          "name": "loteriaName",
          "type": "string"
        },
        {
          "internalType": "uint256",
          "name": "creadorId",
          "type": "uint256"
        },
        {
          "internalType": "string",
          "name": "creadorName",
          "type": "string"
        }
      ],
      "name": "addLoteria",
      "outputs": [
        {
          "internalType": "uint256",
          "name": "",
          "type": "uint256"
        }
      ],
      "stateMutability": "nonpayable",
      "type": "function"
    },
    {
      "inputs": [],
      "name": "getAllLoterias",
      "outputs": [
        {
          "components": [
            {
              "internalType": "uint256",
              "name": "loteriaId",
              "type": "uint256"
            },
            {
              "internalType": "string",
              "name": "loteriaName",
              "type": "string"
            },
            {
              "internalType": "uint256",
              "name": "creadorId",
              "type": "uint256"
            },
            {
              "internalType": "string",
              "name": "creadorName",
              "type": "string"
            }
          ],
          "internalType": "struct Loterias.Loteria[]",
          "name": "",
          "type": "tuple[]"
        }
      ],
      "stateMutability": "view",
      "type": "function"
    },
    {
      "inputs": [
        {
          "internalType": "uint256",
          "name": "loteriaId",
          "type": "uint256"
        }
      ],
      "name": "getLoteriaById",
      "outputs": [
        {
          "components": [
            {
              "internalType": "uint256",
              "name": "loteriaId",
              "type": "uint256"
            },
            {
              "internalType": "string",
              "name": "loteriaName",
              "type": "string"
            },
            {
              "internalType": "uint256",
              "name": "creadorId",
              "type": "uint256"
            },
            {
              "internalType": "string",
              "name": "creadorName",
              "type": "string"
            }
          ],
          "internalType": "struct Loterias.Loteria",
          "name": "",
          "type": "tuple"
        }
      ],
      "stateMutability": "view",
      "type": "function"
    },
    {
      "inputs": [
        {
          "internalType": "uint256",
          "name": "",
          "type": "uint256"
        }
      ],
      "name": "loterias",
      "outputs": [
        {
          "internalType": "uint256",
          "name": "loteriaId",
          "type": "uint256"
        },
        {
          "internalType": "string",
          "name": "loteriaName",
          "type": "string"
        },
        {
          "internalType": "uint256",
          "name": "creadorId",
          "type": "uint256"
        },
        {
          "internalType": "string",
          "name": "creadorName",
          "type": "string"
        }
      ],
      "stateMutability": "view",
      "type": "function"
    },
    {
      "inputs": [],
      "name": "owner",
      "outputs": [
        {
          "internalType": "address",
          "name": "",
          "type": "address"
        }
      ],
      "stateMutability": "view",
      "type": "function"
    },
    {
      "inputs": [],
      "name": "renounceOwnership",
      "outputs": [],
      "stateMutability": "nonpayable",
      "type": "function"
    },
    {
      "inputs": [
        {
          "internalType": "address",
          "name": "newOwner",
          "type": "address"
        }
      ],
      "name": "transferOwnership",
      "outputs": [],
      "stateMutability": "nonpayable",
      "type": "function"
    }
  ],
  "bytecode": "0x608060405234801561001057600080fd5b5060006100216100c460201b60201c565b9050806000806101000a81548173ffffffffffffffffffffffffffffffffffffffff021916908373ffffffffffffffffffffffffffffffffffffffff1602179055508073ffffffffffffffffffffffffffffffffffffffff16600073ffffffffffffffffffffffffffffffffffffffff167f8be0079c531659141344cd1fd0a4f28419497f9722a3daafe3b4186f6b6457e060405160405180910390a3506100cc565b600033905090565b61156f806100db6000396000f3fe608060405234801561001057600080fd5b506004361061007d5760003560e01c80638da5cb5b1161005b5780638da5cb5b146100dd578063b19fbcb7146100fb578063f2fde38b1461012b578063fa663546146101475761007d565b8063715018a61461008257806376fa1ae01461008c578063822661bf146100aa575b600080fd5b61008a610177565b005b6100946102b1565b6040516100a19190610c74565b60405180910390f35b6100c460048036038101906100bf9190610cd6565b6104bd565b6040516100d49493929190610d5c565b60405180910390f35b6100e56105fd565b6040516100f29190610df0565b60405180910390f35b61011560048036038101906101109190610f40565b610626565b6040516101229190610fcb565b60405180910390f35b61014560048036038101906101409190611012565b61073e565b005b610161600480360381019061015c9190610cd6565b6108e6565b60405161016e91906110a9565b60405180910390f35b61017f610a4b565b73ffffffffffffffffffffffffffffffffffffffff1661019d6105fd565b73ffffffffffffffffffffffffffffffffffffffff16146101f3576040517f08c379a00000000000000000000000000000000000000000000000000000000081526004016101ea90611117565b60405180910390fd5b600073ffffffffffffffffffffffffffffffffffffffff1660008054906101000a900473ffffffffffffffffffffffffffffffffffffffff1673ffffffffffffffffffffffffffffffffffffffff167f8be0079c531659141344cd1fd0a4f28419497f9722a3daafe3b4186f6b6457e060405160405180910390a360008060006101000a81548173ffffffffffffffffffffffffffffffffffffffff021916908373ffffffffffffffffffffffffffffffffffffffff160217905550565b606060006102bf6001610a53565b67ffffffffffffffff8111156102d8576102d7610e15565b5b60405190808252806020026020018201604052801561031157816020015b6102fe610a77565b8152602001906001900390816102f65790505b50905060005b6103216001610a53565b8110156104b557600260006001836103399190611166565b81526020019081526020016000206040518060800160405290816000820154815260200160018201805461036c906111c9565b80601f0160208091040260200160405190810160405280929190818152602001828054610398906111c9565b80156103e55780601f106103ba576101008083540402835291602001916103e5565b820191906000526020600020905b8154815290600101906020018083116103c857829003601f168201915b5050505050815260200160028201548152602001600382018054610408906111c9565b80601f0160208091040260200160405190810160405280929190818152602001828054610434906111c9565b80156104815780601f1061045657610100808354040283529160200191610481565b820191906000526020600020905b81548152906001019060200180831161046457829003601f168201915b50505050508152505082828151811061049d5761049c6111fa565b5b60200260200101819052508080600101915050610317565b508091505090565b60026020528060005260406000206000915090508060000154908060010180546104e6906111c9565b80601f0160208091040260200160405190810160405280929190818152602001828054610512906111c9565b801561055f5780601f106105345761010080835404028352916020019161055f565b820191906000526020600020905b81548152906001019060200180831161054257829003601f168201915b50505050509080600201549080600301805461057a906111c9565b80601f01602080910402602001604051908101604052809291908181526020018280546105a6906111c9565b80156105f35780601f106105c8576101008083540402835291602001916105f3565b820191906000526020600020905b8154815290600101906020018083116105d657829003601f168201915b5050505050905084565b60008060009054906101000a900473ffffffffffffffffffffffffffffffffffffffff16905090565b6000610630610a4b565b73ffffffffffffffffffffffffffffffffffffffff1661064e6105fd565b73ffffffffffffffffffffffffffffffffffffffff16146106a4576040517f08c379a000000000000000000000000000000000000000000000000000000000815260040161069b90611117565b60405180910390fd5b6106ae6001610a61565b60006106ba6001610a53565b90506040518060800160405280828152602001868152602001858152602001848152506002600083815260200190815260200160002060008201518160000155602082015181600101908161070f91906113d5565b5060408201518160020155606082015181600301908161072f91906113d5565b50905050809150509392505050565b610746610a4b565b73ffffffffffffffffffffffffffffffffffffffff166107646105fd565b73ffffffffffffffffffffffffffffffffffffffff16146107ba576040517f08c379a00000000000000000000000000000000000000000000000000000000081526004016107b190611117565b60405180910390fd5b600073ffffffffffffffffffffffffffffffffffffffff168173ffffffffffffffffffffffffffffffffffffffff1603610829576040517f08c379a000000000000000000000000000000000000000000000000000000000815260040161082090611519565b60405180910390fd5b8073ffffffffffffffffffffffffffffffffffffffff1660008054906101000a900473ffffffffffffffffffffffffffffffffffffffff1673ffffffffffffffffffffffffffffffffffffffff167f8be0079c531659141344cd1fd0a4f28419497f9722a3daafe3b4186f6b6457e060405160405180910390a3806000806101000a81548173ffffffffffffffffffffffffffffffffffffffff021916908373ffffffffffffffffffffffffffffffffffffffff16021790555050565b6108ee610a77565b6002600083815260200190815260200160002060405180608001604052908160008201548152602001600182018054610926906111c9565b80601f0160208091040260200160405190810160405280929190818152602001828054610952906111c9565b801561099f5780601f106109745761010080835404028352916020019161099f565b820191906000526020600020905b81548152906001019060200180831161098257829003601f168201915b50505050508152602001600282015481526020016003820180546109c2906111c9565b80601f01602080910402602001604051908101604052809291908181526020018280546109ee906111c9565b8015610a3b5780601f10610a1057610100808354040283529160200191610a3b565b820191906000526020600020905b815481529060010190602001808311610a1e57829003601f168201915b5050505050815250509050919050565b600033905090565b600081600001549050919050565b6001816000016000828254019250508190555050565b6040518060800160405280600081526020016060815260200160008152602001606081525090565b600081519050919050565b600082825260208201905092915050565b6000819050602082019050919050565b6000819050919050565b610ade81610acb565b82525050565b600081519050919050565b600082825260208201905092915050565b60005b83811015610b1e578082015181840152602081019050610b03565b60008484015250505050565b6000601f19601f8301169050919050565b6000610b4682610ae4565b610b508185610aef565b9350610b60818560208601610b00565b610b6981610b2a565b840191505092915050565b6000608083016000830151610b8c6000860182610ad5565b5060208301518482036020860152610ba48282610b3b565b9150506040830151610bb96040860182610ad5565b5060608301518482036060860152610bd18282610b3b565b9150508091505092915050565b6000610bea8383610b74565b905092915050565b6000602082019050919050565b6000610c0a82610a9f565b610c148185610aaa565b935083602082028501610c2685610abb565b8060005b85811015610c625784840389528151610c438582610bde565b9450610c4e83610bf2565b925060208a01995050600181019050610c2a565b50829750879550505050505092915050565b60006020820190508181036000830152610c8e8184610bff565b905092915050565b6000604051905090565b600080fd5b600080fd5b610cb381610acb565b8114610cbe57600080fd5b50565b600081359050610cd081610caa565b92915050565b600060208284031215610cec57610ceb610ca0565b5b6000610cfa84828501610cc1565b91505092915050565b610d0c81610acb565b82525050565b600082825260208201905092915050565b6000610d2e82610ae4565b610d388185610d12565b9350610d48818560208601610b00565b610d5181610b2a565b840191505092915050565b6000608082019050610d716000830187610d03565b8181036020830152610d838186610d23565b9050610d926040830185610d03565b8181036060830152610da48184610d23565b905095945050505050565b600073ffffffffffffffffffffffffffffffffffffffff82169050919050565b6000610dda82610daf565b9050919050565b610dea81610dcf565b82525050565b6000602082019050610e056000830184610de1565b92915050565b600080fd5b600080fd5b7f4e487b7100000000000000000000000000000000000000000000000000000000600052604160045260246000fd5b610e4d82610b2a565b810181811067ffffffffffffffff82111715610e6c57610e6b610e15565b5b80604052505050565b6000610e7f610c96565b9050610e8b8282610e44565b919050565b600067ffffffffffffffff821115610eab57610eaa610e15565b5b610eb482610b2a565b9050602081019050919050565b82818337600083830152505050565b6000610ee3610ede84610e90565b610e75565b905082815260208101848484011115610eff57610efe610e10565b5b610f0a848285610ec1565b509392505050565b600082601f830112610f2757610f26610e0b565b5b8135610f37848260208601610ed0565b91505092915050565b600080600060608486031215610f5957610f58610ca0565b5b600084013567ffffffffffffffff811115610f7757610f76610ca5565b5b610f8386828701610f12565b9350506020610f9486828701610cc1565b925050604084013567ffffffffffffffff811115610fb557610fb4610ca5565b5b610fc186828701610f12565b9150509250925092565b6000602082019050610fe06000830184610d03565b92915050565b610fef81610dcf565b8114610ffa57600080fd5b50565b60008135905061100c81610fe6565b92915050565b60006020828403121561102857611027610ca0565b5b600061103684828501610ffd565b91505092915050565b60006080830160008301516110576000860182610ad5565b506020830151848203602086015261106f8282610b3b565b91505060408301516110846040860182610ad5565b506060830151848203606086015261109c8282610b3b565b9150508091505092915050565b600060208201905081810360008301526110c3818461103f565b905092915050565b7f4f776e61626c653a2063616c6c6572206973206e6f7420746865206f776e6572600082015250565b6000611101602083610d12565b915061110c826110cb565b602082019050919050565b60006020820190508181036000830152611130816110f4565b9050919050565b7f4e487b7100000000000000000000000000000000000000000000000000000000600052601160045260246000fd5b600061117182610acb565b915061117c83610acb565b925082820190508082111561119457611193611137565b5b92915050565b7f4e487b7100000000000000000000000000000000000000000000000000000000600052602260045260246000fd5b600060028204905060018216806111e157607f821691505b6020821081036111f4576111f361119a565b5b50919050565b7f4e487b7100000000000000000000000000000000000000000000000000000000600052603260045260246000fd5b60008190508160005260206000209050919050565b60006020601f8301049050919050565b600082821b905092915050565b60006008830261128b7fffffffffffffffffffffffffffffffffffffffffffffffffffffffffffffffff8261124e565b611295868361124e565b95508019841693508086168417925050509392505050565b6000819050919050565b60006112d26112cd6112c884610acb565b6112ad565b610acb565b9050919050565b6000819050919050565b6112ec836112b7565b6113006112f8826112d9565b84845461125b565b825550505050565b600090565b611315611308565b6113208184846112e3565b505050565b5b818110156113445761133960008261130d565b600181019050611326565b5050565b601f8211156113895761135a81611229565b6113638461123e565b81016020851015611372578190505b61138661137e8561123e565b830182611325565b50505b505050565b600082821c905092915050565b60006113ac6000198460080261138e565b1980831691505092915050565b60006113c5838361139b565b9150826002028217905092915050565b6113de82610ae4565b67ffffffffffffffff8111156113f7576113f6610e15565b5b61140182546111c9565b61140c828285611348565b600060209050601f83116001811461143f576000841561142d578287015190505b61143785826113b9565b86555061149f565b601f19841661144d86611229565b60005b8281101561147557848901518255600182019150602085019450602081019050611450565b86831015611492578489015161148e601f89168261139b565b8355505b6001600288020188555050505b505050505050565b7f4f776e61626c653a206e6577206f776e657220697320746865207a65726f206160008201527f6464726573730000000000000000000000000000000000000000000000000000602082015250565b6000611503602683610d12565b915061150e826114a7565b604082019050919050565b60006020820190508181036000830152611532816114f6565b905091905056fea264697066735822122040e8e8ce1198057f16556512e3b906fe614abab327daefe2978ac9534e89ff4f64736f6c63430008180033",
  "linkReferences": {},
  "deployedLinkReferences": {}
}