{
  "_format": "hh-sol-artifact-1",
  "contractName": "Boletos",
  "sourceName": "contracts/Boletos.sol",
  "abi": [
    {
      "anonymous": false,
      "inputs": [
        {
          "indexed": true,
          "internalType": "address",
          "name": "previousOwner",
          "type": "address"
        },
        {
          "indexed": true,
          "internalType": "address",
          "name": "newOwner",
          "type": "address"
        }
      ],
      "name": "OwnershipTransferred",
      "type": "event"
    },
    {
      "inputs": [
        {
          "internalType": "string",
          "name": "token",
          "type": "string"
        },
        {
          "internalType": "uint256",
          "name": "jugadorId",
          "type": "uint256"
        },
        {
          "internalType": "uint256",
          "name": "loteriaId",
          "type": "uint256"
        }
      ],
      "name": "addBoleto",
      "outputs": [
        {
          "internalType": "uint256",
          "name": "",
          "type": "uint256"
        }
      ],
      "stateMutability": "nonpayable",
      "type": "function"
    },
    {
      "inputs": [
        {
          "internalType": "uint256",
          "name": "",
          "type": "uint256"
        }
      ],
      "name": "boletos",
      "outputs": [
        {
          "internalType": "uint256",
          "name": "boletoId",
          "type": "uint256"
        },
        {
          "internalType": "string",
          "name": "token",
          "type": "string"
        },
        {
          "internalType": "uint256",
          "name": "jugadorId",
          "type": "uint256"
        },
        {
          "internalType": "uint256",
          "name": "loteriaId",
          "type": "uint256"
        }
      ],
      "stateMutability": "view",
      "type": "function"
    },
    {
      "inputs": [],
      "name": "getAllBoletos",
      "outputs": [
        {
          "components": [
            {
              "internalType": "uint256",
              "name": "boletoId",
              "type": "uint256"
            },
            {
              "internalType": "string",
              "name": "token",
              "type": "string"
            },
            {
              "internalType": "uint256",
              "name": "jugadorId",
              "type": "uint256"
            },
            {
              "internalType": "uint256",
              "name": "loteriaId",
              "type": "uint256"
            }
          ],
          "internalType": "struct Boletos.Boleto[]",
          "name": "",
          "type": "tuple[]"
        }
      ],
      "stateMutability": "view",
      "type": "function"
    },
    {
      "inputs": [
        {
          "internalType": "uint256",
          "name": "boletoId",
          "type": "uint256"
        }
      ],
      "name": "getBoletoById",
      "outputs": [
        {
          "components": [
            {
              "internalType": "uint256",
              "name": "boletoId",
              "type": "uint256"
            },
            {
              "internalType": "string",
              "name": "token",
              "type": "string"
            },
            {
              "internalType": "uint256",
              "name": "jugadorId",
              "type": "uint256"
            },
            {
              "internalType": "uint256",
              "name": "loteriaId",
              "type": "uint256"
            }
          ],
          "internalType": "struct Boletos.Boleto",
          "name": "",
          "type": "tuple"
        }
      ],
      "stateMutability": "view",
      "type": "function"
    },
    {
      "inputs": [
        {
          "internalType": "uint256",
          "name": "jugadorId",
          "type": "uint256"
        }
      ],
      "name": "getBoletoByJugadorId",
      "outputs": [
        {
          "components": [
            {
              "internalType": "uint256",
              "name": "boletoId",
              "type": "uint256"
            },
            {
              "internalType": "string",
              "name": "token",
              "type": "string"
            },
            {
              "internalType": "uint256",
              "name": "jugadorId",
              "type": "uint256"
            },
            {
              "internalType": "uint256",
              "name": "loteriaId",
              "type": "uint256"
            }
          ],
          "internalType": "struct Boletos.Boleto[]",
          "name": "",
          "type": "tuple[]"
        }
      ],
      "stateMutability": "view",
      "type": "function"
    },
    {
      "inputs": [],
      "name": "owner",
      "outputs": [
        {
          "internalType": "address",
          "name": "",
          "type": "address"
        }
      ],
      "stateMutability": "view",
      "type": "function"
    },
    {
      "inputs": [],
      "name": "renounceOwnership",
      "outputs": [],
      "stateMutability": "nonpayable",
      "type": "function"
    },
    {
      "inputs": [
        {
          "internalType": "address",
          "name": "newOwner",
          "type": "address"
        }
      ],
      "name": "transferOwnership",
      "outputs": [],
      "stateMutability": "nonpayable",
      "type": "function"
    }
  ],
  "bytecode": "0x608060405234801561001057600080fd5b5060006100216100c460201b60201c565b9050806000806101000a81548173ffffffffffffffffffffffffffffffffffffffff021916908373ffffffffffffffffffffffffffffffffffffffff1602179055508073ffffffffffffffffffffffffffffffffffffffff16600073ffffffffffffffffffffffffffffffffffffffff167f8be0079c531659141344cd1fd0a4f28419497f9722a3daafe3b4186f6b6457e060405160405180910390a3506100cc565b600033905090565b611670806100db6000396000f3fe608060405234801561001057600080fd5b50600436106100885760003560e01c8063857a40b71161005b578063857a40b7146101155780638da5cb5b14610145578063d1eeaefb14610163578063f2fde38b1461019657610088565b806301a13d581461008d5780630e73c1a7146100bd57806342dbe054146100db578063715018a61461010b575b600080fd5b6100a760048036038101906100a29190610bd3565b6101b2565b6040516100b49190610d02565b60405180910390f35b6100c561028f565b6040516100d29190610e49565b60405180910390f35b6100f560048036038101906100f09190610bd3565b610413565b6040516101029190610e49565b60405180910390f35b610113610666565b005b61012f600480360381019061012a9190610fa0565b6107a0565b60405161013c919061101e565b60405180910390f35b61014d6108ac565b60405161015a919061107a565b60405180910390f35b61017d60048036038101906101789190610bd3565b6108d5565b60405161018d94939291906110df565b60405180910390f35b6101b060048036038101906101ab9190611157565b61098d565b005b6101ba610b61565b60026000838152602001908152602001600020604051806080016040529081600082015481526020016001820180546101f2906111b3565b80601f016020809104026020016040519081016040528092919081815260200182805461021e906111b3565b801561026b5780601f106102405761010080835404028352916020019161026b565b820191906000526020600020905b81548152906001019060200180831161024e57829003601f168201915b50505050508152602001600282015481526020016003820154815250509050919050565b6060600061029d6001610b35565b67ffffffffffffffff8111156102b6576102b5610e75565b5b6040519080825280602002602001820160405280156102ef57816020015b6102dc610b61565b8152602001906001900390816102d45790505b50905060005b6102ff6001610b35565b81101561040b57600260006001836103179190611213565b81526020019081526020016000206040518060800160405290816000820154815260200160018201805461034a906111b3565b80601f0160208091040260200160405190810160405280929190818152602001828054610376906111b3565b80156103c35780601f10610398576101008083540402835291602001916103c3565b820191906000526020600020905b8154815290600101906020018083116103a657829003601f168201915b50505050508152602001600282015481526020016003820154815250508282815181106103f3576103f2611247565b5b602002602001018190525080806001019150506102f5565b508091505090565b606060006104216001610b35565b67ffffffffffffffff81111561043a57610439610e75565b5b60405190808252806020026020018201604052801561047357816020015b610460610b61565b8152602001906001900390816104585790505b5090506000805b6104846001610b35565b8110156105b05760006002600060018461049e9190611213565b81526020019081526020016000209050858160020154036105a25780604051806080016040529081600082015481526020016001820180546104df906111b3565b80601f016020809104026020016040519081016040528092919081815260200182805461050b906111b3565b80156105585780601f1061052d57610100808354040283529160200191610558565b820191906000526020600020905b81548152906001019060200180831161053b57829003601f168201915b505050505081526020016002820154815260200160038201548152505084848151811061058857610587611247565b5b6020026020010181905250828061059e90611276565b9350505b50808060010191505061047a565b5060008167ffffffffffffffff8111156105cd576105cc610e75565b5b60405190808252806020026020018201604052801561060657816020015b6105f3610b61565b8152602001906001900390816105eb5790505b50905060005b8281101561065a5783818151811061062757610626611247565b5b602002602001015182828151811061064257610641611247565b5b6020026020010181905250808060010191505061060c565b50809350505050919050565b61066e610b43565b73ffffffffffffffffffffffffffffffffffffffff1661068c6108ac565b73ffffffffffffffffffffffffffffffffffffffff16146106e2576040517f08c379a00000000000000000000000000000000000000000000000000000000081526004016106d99061130a565b60405180910390fd5b600073ffffffffffffffffffffffffffffffffffffffff1660008054906101000a900473ffffffffffffffffffffffffffffffffffffffff1673ffffffffffffffffffffffffffffffffffffffff167f8be0079c531659141344cd1fd0a4f28419497f9722a3daafe3b4186f6b6457e060405160405180910390a360008060006101000a81548173ffffffffffffffffffffffffffffffffffffffff021916908373ffffffffffffffffffffffffffffffffffffffff160217905550565b60006107aa610b43565b73ffffffffffffffffffffffffffffffffffffffff166107c86108ac565b73ffffffffffffffffffffffffffffffffffffffff161461081e576040517f08c379a00000000000000000000000000000000000000000000000000000000081526004016108159061130a565b60405180910390fd5b6108286001610b4b565b60006108346001610b35565b90506040518060800160405280828152602001868152602001858152602001848152506002600083815260200190815260200160002060008201518160000155602082015181600101908161088991906114d6565b506040820151816002015560608201518160030155905050809150509392505050565b60008060009054906101000a900473ffffffffffffffffffffffffffffffffffffffff16905090565b60026020528060005260406000206000915090508060000154908060010180546108fe906111b3565b80601f016020809104026020016040519081016040528092919081815260200182805461092a906111b3565b80156109775780601f1061094c57610100808354040283529160200191610977565b820191906000526020600020905b81548152906001019060200180831161095a57829003601f168201915b5050505050908060020154908060030154905084565b610995610b43565b73ffffffffffffffffffffffffffffffffffffffff166109b36108ac565b73ffffffffffffffffffffffffffffffffffffffff1614610a09576040517f08c379a0000000000000000000000000000000000000000000000000000000008152600401610a009061130a565b60405180910390fd5b600073ffffffffffffffffffffffffffffffffffffffff168173ffffffffffffffffffffffffffffffffffffffff1603610a78576040517f08c379a0000000000000000000000000000000000000000000000000000000008152600401610a6f9061161a565b60405180910390fd5b8073ffffffffffffffffffffffffffffffffffffffff1660008054906101000a900473ffffffffffffffffffffffffffffffffffffffff1673ffffffffffffffffffffffffffffffffffffffff167f8be0079c531659141344cd1fd0a4f28419497f9722a3daafe3b4186f6b6457e060405160405180910390a3806000806101000a81548173ffffffffffffffffffffffffffffffffffffffff021916908373ffffffffffffffffffffffffffffffffffffffff16021790555050565b600081600001549050919050565b600033905090565b6001816000016000828254019250508190555050565b6040518060800160405280600081526020016060815260200160008152602001600081525090565b6000604051905090565b600080fd5b600080fd5b6000819050919050565b610bb081610b9d565b8114610bbb57600080fd5b50565b600081359050610bcd81610ba7565b92915050565b600060208284031215610be957610be8610b93565b5b6000610bf784828501610bbe565b91505092915050565b610c0981610b9d565b82525050565b600081519050919050565b600082825260208201905092915050565b60005b83811015610c49578082015181840152602081019050610c2e565b60008484015250505050565b6000601f19601f8301169050919050565b6000610c7182610c0f565b610c7b8185610c1a565b9350610c8b818560208601610c2b565b610c9481610c55565b840191505092915050565b6000608083016000830151610cb76000860182610c00565b5060208301518482036020860152610ccf8282610c66565b9150506040830151610ce46040860182610c00565b506060830151610cf76060860182610c00565b508091505092915050565b60006020820190508181036000830152610d1c8184610c9f565b905092915050565b600081519050919050565b600082825260208201905092915050565b6000819050602082019050919050565b6000608083016000830151610d686000860182610c00565b5060208301518482036020860152610d808282610c66565b9150506040830151610d956040860182610c00565b506060830151610da86060860182610c00565b508091505092915050565b6000610dbf8383610d50565b905092915050565b6000602082019050919050565b6000610ddf82610d24565b610de98185610d2f565b935083602082028501610dfb85610d40565b8060005b85811015610e375784840389528151610e188582610db3565b9450610e2383610dc7565b925060208a01995050600181019050610dff565b50829750879550505050505092915050565b60006020820190508181036000830152610e638184610dd4565b905092915050565b600080fd5b600080fd5b7f4e487b7100000000000000000000000000000000000000000000000000000000600052604160045260246000fd5b610ead82610c55565b810181811067ffffffffffffffff82111715610ecc57610ecb610e75565b5b80604052505050565b6000610edf610b89565b9050610eeb8282610ea4565b919050565b600067ffffffffffffffff821115610f0b57610f0a610e75565b5b610f1482610c55565b9050602081019050919050565b82818337600083830152505050565b6000610f43610f3e84610ef0565b610ed5565b905082815260208101848484011115610f5f57610f5e610e70565b5b610f6a848285610f21565b509392505050565b600082601f830112610f8757610f86610e6b565b5b8135610f97848260208601610f30565b91505092915050565b600080600060608486031215610fb957610fb8610b93565b5b600084013567ffffffffffffffff811115610fd757610fd6610b98565b5b610fe386828701610f72565b9350506020610ff486828701610bbe565b925050604061100586828701610bbe565b9150509250925092565b61101881610b9d565b82525050565b6000602082019050611033600083018461100f565b92915050565b600073ffffffffffffffffffffffffffffffffffffffff82169050919050565b600061106482611039565b9050919050565b61107481611059565b82525050565b600060208201905061108f600083018461106b565b92915050565b600082825260208201905092915050565b60006110b182610c0f565b6110bb8185611095565b93506110cb818560208601610c2b565b6110d481610c55565b840191505092915050565b60006080820190506110f4600083018761100f565b818103602083015261110681866110a6565b9050611115604083018561100f565b611122606083018461100f565b95945050505050565b61113481611059565b811461113f57600080fd5b50565b6000813590506111518161112b565b92915050565b60006020828403121561116d5761116c610b93565b5b600061117b84828501611142565b91505092915050565b7f4e487b7100000000000000000000000000000000000000000000000000000000600052602260045260246000fd5b600060028204905060018216806111cb57607f821691505b6020821081036111de576111dd611184565b5b50919050565b7f4e487b7100000000000000000000000000000000000000000000000000000000600052601160045260246000fd5b600061121e82610b9d565b915061122983610b9d565b9250828201905080821115611241576112406111e4565b5b92915050565b7f4e487b7100000000000000000000000000000000000000000000000000000000600052603260045260246000fd5b600061128182610b9d565b91507fffffffffffffffffffffffffffffffffffffffffffffffffffffffffffffffff82036112b3576112b26111e4565b5b600182019050919050565b7f4f776e61626c653a2063616c6c6572206973206e6f7420746865206f776e6572600082015250565b60006112f4602083611095565b91506112ff826112be565b602082019050919050565b60006020820190508181036000830152611323816112e7565b9050919050565b60008190508160005260206000209050919050565b60006020601f8301049050919050565b600082821b905092915050565b60006008830261138c7fffffffffffffffffffffffffffffffffffffffffffffffffffffffffffffffff8261134f565b611396868361134f565b95508019841693508086168417925050509392505050565b6000819050919050565b60006113d36113ce6113c984610b9d565b6113ae565b610b9d565b9050919050565b6000819050919050565b6113ed836113b8565b6114016113f9826113da565b84845461135c565b825550505050565b600090565b611416611409565b6114218184846113e4565b505050565b5b818110156114455761143a60008261140e565b600181019050611427565b5050565b601f82111561148a5761145b8161132a565b6114648461133f565b81016020851015611473578190505b61148761147f8561133f565b830182611426565b50505b505050565b600082821c905092915050565b60006114ad6000198460080261148f565b1980831691505092915050565b60006114c6838361149c565b9150826002028217905092915050565b6114df82610c0f565b67ffffffffffffffff8111156114f8576114f7610e75565b5b61150282546111b3565b61150d828285611449565b600060209050601f831160018114611540576000841561152e578287015190505b61153885826114ba565b8655506115a0565b601f19841661154e8661132a565b60005b8281101561157657848901518255600182019150602085019450602081019050611551565b86831015611593578489015161158f601f89168261149c565b8355505b6001600288020188555050505b505050505050565b7f4f776e61626c653a206e6577206f776e657220697320746865207a65726f206160008201527f6464726573730000000000000000000000000000000000000000000000000000602082015250565b6000611604602683611095565b915061160f826115a8565b604082019050919050565b60006020820190508181036000830152611633816115f7565b905091905056fea2646970667358221220890dc4e79ecb6ab641538a788ee8fc959f8f50a76e022d07e174481e1a4235a764736f6c63430008180033",
  "linkReferences": {},
  "deployedLinkReferences": {}
}